:1000000000000120BD030000E5030000E70300003D
:10001000E9030000EB030000ED0300000000000016
:10002000000000000000000000000000EF030000DE
:10003000F103000000000000F3030000F5030000DE
:10004000A10F0000F7030000F7030000F703000012
:10005000F7030000F7030000F7030000F7030000B8
:10006000F7030000F7030000F7030000F7030000A8
:10007000F7030000F7030000F7030000F703000098
:10008000F70300001D080000F7030000F70300005D
:10009000BD080000F7030000F7030000F7030000AD
:1000A000F7030000F7030000F7030000F703000068
:1000B000F7030000F703000000000000000000004C
:1000C000F7030000F7030000F7030000F703000048
:1000D000F7030000F7030000F70300000000000032
:1000E0000000000000000000000000000000000010
:1000F0000000000000000000000000000000000000
:1001000000000000000000000000000000000000EF
:1001100000000000000000000000000000000000DF
:1001200000000000000000000000000000000000CF
:1001300000000000000000000000000000000000BF
:1001400000000000000000000000000000000000AF
:10015000000000000000000000000000000000009F
:10016000000000000000000000000000000000008F
:10017000000000000000000000000000000000007F
:10018000000000000000000000000000000000006F
:10019000000000000000000000000000000000005F
:1001A000000000000000000000000000000000004F
:1001B000000000000000000000000000000000003F
:1001C000000000000000000000000000000000002F
:1001D000000000000000000000000000000000001F
:1001E000000000000000000000000000000000000F
:1001F00000000000000000000000000000000000FF
:1002000010B5054C237833B9044B13B10448AFF350
:1002100000800123237010BD6C000020000000004E
:10022000EC13000008B5034B1BB103490348AFF3BF
:10023000008008BD0000000070000020EC130000EA
:10024000A3F5803A704700BF174B002B08BF134B34
:100250009D46FFF7F5FF00218B460F461348144AD1
:10026000121A00F00BFF0E4B002B00D098470D4BDD
:10027000002B00D098470020002104000D000D48FD
:10028000002802D00C48AFF3008000F0D3FE20001D
:10029000290000F0C3F800F0B9FE00BF000008001C
:1002A0000000000000000000000001206C000020A1
:1002B000F001002000000000000000004FF0A0430B
:1002C0000322C3F84427C3F8482770474FF0A042E1
:1002D000D2F80435D94301F4003103F40033C2F8F5
:1002E0000815C2F80C3570474FF0A042D2F804351B
:1002F000D94301F4802103F48023C2F80815C2F821
:100300000C357047024A137883F00103137070476D
:10031000A800002008B500F0A5FD08B1032008BD25
:1003200000F0C2FD00F0C0FC00280CBF012004203A
:1003300008BD00BF08B5054A0548012100F00CFDC5
:1003400000280CBF0120052008BD00BF05030000E8
:10035000A0130000C00310F5FA704FF0000108B5BB
:10036000494100234FF47A7200F092FE00220146C8
:10037000034800F003FD00280CBF0120062008BD43
:10038000880000204FF0A0430C22C3F834277047A8
:1003900038B54FF0A043D3F810359B040AD4064D6E
:1003A000642445F001054FF47A40A847013CFAD196
:1003B000012038BD002038BDB01300000649074AAF
:1003C000074B9B1A03DD043BC858D050FBDC00F000
:1003D0004BF8FFF739FF0000F81300000000002081
:1003E0006C000020FEE7FEE7FEE7FEE7FEE7FEE723
:1003F000FEE7FEE7FEE7FEE772B6024A1368013346
:1004000013607047AC000020034A1368013B13607F
:1004100003B962B6704700BFAC00002008B5FFF713
:1004200079FFFFF787FF6420FFF794FFFFF746FF90
:10043000FFF7A8FF0B4C0025237843B9FFF7A8FF6F
:100440000028F9D0FFF750FF2378002BF6D0FFF7F4
:100450003DFF2570FFF79CFF0028EDD0FFF744FF1C
:10046000F2E700BFA800002030B4B24B1B68591C53
:1004700004BFB14B1B78062B05D1B04BB04A1B68AB
:10048000C3F304231360AC4B1B78062B00F0FD80F4
:10049000A84B1B685A1C04BFA74B1B78062B05D121
:1004A000A84BA94A1B68C3F342331360A24B1B78C5
:1004B000062B00F0D7809F4B1B685D1C04BF9E4B32
:1004C0001B78062B08D14FF080430022C3F80C2183
:1004D000C3F81021C3F83825974B1B78062B00F082
:1004E000A180944B1A68541C24D0984B062A1B6890
:1004F00028D0974AD2F8883043F47003C2F8883085
:10050000BFF34F8FBFF36F8F8A4B1B68062B00F032
:10051000CD804FF01023D3F80022002AC0F246818C
:10052000D3F80432002BC0F241818A4B8A4A1A6008
:1005300030BC70478049894B09781B680629D8D19F
:10054000C3F30313033B042B40F2CA804FF08052E5
:10055000834BD2F80414C3F82015D2F80814C3F85A
:100560002415D2F80C14C3F82815D2F81014C3F8C7
:100570002C15D2F81414C3F83015D2F81814C3F897
:100580003415D2F81C14C3F84015D2F82014C3F85F
:100590004415D2F82414C3F84815D2F82814C3F827
:1005A0004C15D2F82C14C3F85015D2F83014C3F8F7
:1005B0005415D2F83414C3F86015D2F83814C3F8BF
:1005C0006415D2F83C14C3F86815D2F840145948A1
:1005D000C3F86C15D2F844140268C3F87015501CA7
:1005E00000F0A280062A84D15E4B524A1B685E4905
:1005F000126803F04F030B60511C77D0062A7FF47A
:1006000078AF4FF08043D3F80034DA077AD44F4BF9
:100610001B68033B042B5DD9544A136843F4806381
:10062000136066E74D4B1B68C3F30313033B042BB6
:100630003FF657AF4E4AD25C12B14E4A03211160C9
:100640004D4AD35C002B3FF44CAF4C4A4C4C4D49C7
:100650004D4B05201060012500203F2225600860D9
:100660001A603EE73D4B1B68C3F30313033B042BA7
:100670003FF621AF454AD35C002B3FF41CAF444A00
:10068000D36823F08073D36015E7344B1B68C3F342
:100690000313033B042B3FF6FBAE3E4AD35C002B17
:1006A0003FF4F6AE3C4B3D4A1A60F1E6274B1B681F
:1006B000033B042B08D94FF010224FF08043D2F8AF
:1006C0000822C3F8582524E7354AD35C002B3FF4B1
:1006D00020AFF0E7334AD35C002B3FF40AAF9BE72F
:1006E0003149CB5C002B3FF47AAF2FE7124B1B78DC
:1006F000062B7FF4FEAE4FF08043D3F80034DB07C7
:100700007FF5F7AE0B4B1B684FF080426FF0010195
:10071000062BC2F800147FF4ECAE0C4B1B68033BB5
:10072000042B3FF679AFD5E7034B1B78062B3FF43C
:100730005BAFDEE630010010E00F00F02403001094
:1007400040350140440200103C05004034010010D7
:1007500000ED00E0000000200090D003E80F00F062
:1007600000C0004058020010E40E00403C1700405A
:10077000D0130000A0050040D01300001056004028
:10078000885600401856004014560040D013000010
:10079000F0ED00E0D013000074C007400DF0ADBADA
:1007A000C8130000C0130000B8130000184A01234A
:1007B000C2F80435D2F80034002BFBD04FF01023E0
:1007C0001521134AC3F80012D2F80034002BFBD0D5
:1007D0004FF0102315210E4AC3F80412D2F800344A
:1007E000002BFBD000230A49C2F80435D1F80034AD
:1007F000002BFBD0BFF34F8F0649074BCA6802F4AA
:10080000E0621343CB60BFF34F8F00BFFDE700BF33
:1008100000E0014000ED00E00400FA05F8B52049D1
:10082000204B0024C1F84041C1F84441C1F848417F
:10083000C1F84C41C1F80041C1F804411B6833B311
:100840001948D1F8045501681A686D1A25F07F45DA
:10085000AA4227460DD8197CDE69AD1A144419B195
:10086000D3E905201F7490471EB133461A68AA4287
:10087000F1D90E490E4A0B7812789A4208D00D49E8
:100880000D4A41F823404FF48013C2F80031F8BDFF
:10089000531CDBB2022B08BF00230B70EFE700BF35
:1008A00000100140D0010020CC010020C90100202F
:1008B000C8010020C001002000E100E02DE9F04F58
:1008C000B44AB54913780978994285B000F08E8111
:1008D0000133DBB2022B08BF0023B0481370B04ACB
:1008E0000568DFF8D48252F82310D8F800606B183E
:1008F00023F07F430360002E00F0C78100200746ED
:10090000044684463346AE4613E0D868DD69C3F832
:1009100000C0891A144438B10EEB040222F07F4261
:10092000C3E90120DF611F460120002D00F0658131
:100930002B461A688A42E8D9002800F09181C8F84D
:1009400000309946521A1A6001230093954B964E37
:10095000DFF868A243F0010301934D464FF0000B0E
:10096000002F31D0D7E901303C46FF698B4ADFF8D0
:1009700050C21268991A21F07F41614500F2BC8093
:100980000B18236000220121C4E90122E2612174D5
:10099000002D00F0A4802A689A4280F099802946B0
:1009A00005E0D1F800E09E4580F09D807246084643
:1009B000C9699C469B1A0029F3D12360E161C46197
:1009C0002C462546002FCDD17078337898421BD025
:1009D0009C460CEB4C0CB27806EBCC0C591CCBB201
:1009E0009A429CF80420337004BF00233370022A1B
:1009F000DCF8084000F0AC80032A00F09E80012A59
:100A000000F082808342E3D1BBF1000F01D1A94500
:100A10002BD07DB3614A654B1468D3F80465644FED
:100A2000D5F800803A78351B25F07F450335002A3C
:100A300000F0E8805D4AA8452CBF4444641924F0C6
:100A40007F44C2F84045D2F804359B1BA41B23F019
:100A50007F4324F07F440333A34200F2EC80002361
:100A60008AF8003005B0BDE8F08F009B002BF6D06F
:100A7000002DCFD14F4B4FF40032C3F88020BFF38D
:100A80004F8FBFF36F8F494E464C4FF48033012791
:100A9000C6F848333C43C6F808334FF43C607760EF
:100AA000A0473E4BB7604FF43C601D60A047404BF1
:100AB0001D7000238AF8003005B0BDE8F08F0023D8
:100AC0000122C4E90033A360E36122743DB12A68C6
:100AD000C8F80040D31A2B60E561254672E7C8F8D4
:100AE000004025466EE77244A2EB0C020A602360C8
:100AF000E161C4612C4664E7D31A23F07F4383424B
:100B0000DDD2C31A23603DE7227C002A7FF47AAF4E
:100B1000DCF80C306360DCF81000A060DCF8141026
:100B2000E1609AF800E0DCF81810A161BEF1000F56
:100B30003FF41CAF6260134618E7002D3FF446AF48
:100B400000232B74ED69002DFBD1C8F800503BE762
:100B50004DB1AC423BD02A4601E0944206D011464A
:100B6000D269002AF9D1002222744BE78C4230D09E
:100B7000E0692268C86128B3AC4603681344036087
:100B8000AC451FD0002233787078227465464FF050
:100B9000010B37E7C8010020C9010020CC0100206B
:100BA000C0010020E0130000B00000200010014050
:100BB000BD01002000E100E0D0010020BC010020C8
:100BC000FEFF7F0000223378707822741AE72946EE
:100BD0002A46D5F81CC0C8F800C0BCF1000F41D0AF
:100BE000D0691268C8610028C7D1C9E7DFF8B480AE
:100BF0000027D8F800900097A8E6A946C8F800504A
:100C00000090A3E6234A4FF480304FF40031C3F83C
:100C10004403C3F80403C2F8801111601E4A4FF068
:100C20000109C3F800904FF43C6042EA0903984779
:100C300087F80090FEE6184BD2F80415C2F840156C
:100C400043F001034FF43C609847124B4FF40032DD
:100C5000C3F8002100238AF8003005B0BDE8F08F0A
:100C6000B1466FE6CDE902210C4A0D48012393609D
:100C7000C0F800C08AF800304FF43C60019B9847F0
:100C8000DDE90221D8F800C0AAE70123B1463746C2
:100C900000935BE600E100E0E0130000001001407B
:100CA000CC010020D00100202DE9F843214E4FF463
:100CB0000033C6F88030BFF34F8FBFF36F8F1E4DE8
:100CC0001E4FDFF890804FF480334FF0010900246D
:100CD000C5F8483347EA0907C5F808334FF43C60C4
:100CE000C5F80490B847C5F808904FF43C60C8F8C0
:100CF0000040B847124A134B13491C601470134B41
:100D0000134A0C700B2114701C8099704FF48012E0
:100D1000C023C6F8802186F814333260C5F8084530
:100D200086F81133D5F80435C8F800302046BDE800
:100D3000F88300BF00E100E000100140E013000074
:100D4000BD010020D0010020C8010020B00000201B
:100D5000C9010020CC010020074B9B783BB142B178
:100D600038B10368187C10B959745A61704708206B
:100D700070470720704700BFB00000202DE9F04108
:100D8000234EB378002B37D00446002834D0214BB3
:100D900090464A1F9A420D4631D8436963B3437C5B
:100DA0000020012B0CBF0F460746FFF725FB737889
:100DB000B0783278591CC9B2884208BF00218A42F3
:100DC00020D003EB430306EBC3030120124A187142
:100DD0009C60D2F80425DA60C3E904570020C3F808
:100DE00018807170FFF710FB0C4B4FF48012C3F8A2
:100DF00000210020BDE8F0810820BDE8F081072037
:100E0000BDE8F0810020FFF7FFFA0420F2E700BF01
:100E1000B0000020FAFFFF000010014000E100E0F8
:100E200010B568B90E4CA368012262703BB1D3E9DA
:100E300000230020A2609847A368002BF7D110BDC3
:100E40000128FCD1064C2369A070002BF7D0D3E910
:100E500000230120226198472369002BF7D110BDA0
:100E6000D401002010B50D4C237882B043B1852009
:100E70000B4BD3F800340BB10123A37002B010BDAB
:100E800008486360A3602361E36000F03BF80190D1
:100E900000F044F8012301982370E9E7D401002011
:100EA00000000140210E000038B5154DAB78044616
:100EB00073B110B14368012098470020FFF79CFAF6
:100EC000EB680133EB600020BDE83840FFF79CBAC7
:100ED00003F0FF00FFF790FA64B12A6942B194422F
:100EE00008D0134601E09C4204D01B68002BFAD1C5
:100EF00022602C61EB68002BE2D100F021F8DFE7E3
:100F0000D4010020044A137923B901211060918093
:100F10001846704785207047E8010020074B1A6883
:100F2000D20704D4C02283F8002301221A604FF0B4
:100F300080430122C3F81825704700BF00E100E09C
:100F400010B41349134B144A0020086083B0096899
:100F500001914FF080410220019CC1F80403D86840
:100F600040F08071D960146844F001031360516847
:100F700053685B1AB3F50A5FFAD30649074B14604E
:100F80000122C8601A6003B05DF8044B704700BFCF
:100F900004010040F0ED00E0001000E00800004017
:100FA00010B5174B1A6882B062B10021154A19605A
:100FB0001B68507900934FF080410123009CC1F8D9
:100FC000083398B1104B1A68BAB100221A601B6836
:100FD00001934FF0804202210A4B0198C2F8081396
:100FE0001B68012002B0BDE810401847116853711A
:100FF0008847054B1A68002AE7D102B010BD00BF30
:1010000000010040E80100200401004008B5074B42
:10101000044613B10021AFF30080054B1868836AC2
:1010200003B19847204600F031F800BF00000000EF
:10103000E813000070B50D4D0D4C641BA410002684
:10104000A64209D10B4D0C4C00F09EF9641BA41074
:101050000026A64205D170BD55F8043B98470136DD
:10106000EEE755F8043B98470136F2E764000020AC
:101070006400002064000020680000200244034651
:10108000934200D1704703F8011BF9E7FEE700BF68
:1010900053B94AB9002908BF00281CBF4FF0FF31DF
:1010A0004FF0FF3000F06EB9ADF1080C6DE904CEE1
:1010B00000F006F8DDF804E0DDE9022304B0704733
:1010C0002DE9F047089D04468C46002B40F08380B4
:1010D0008A42174647D9B2FA82F242B1C2F12000E1
:1010E00024FA00F09140974040EA010C94404FEA06
:1010F0001748230CBCFBF8F61FFA87FE08FB16C145
:1011000043EA014306FB0EF1994209D9FB1806F1A7
:10111000FF3080F01981994240F21681023E3B4433
:101120005B1AA4B2B3FBF8F008FB103344EA0344A3
:1011300000FB0EFEA64509D93C1900F1FF3380F0F3
:101140000581A64540F2028102383C4440EA06404F
:10115000A4EB0E0400261DB1D4400023C5E90043D2
:101160003146BDE8F08702B9FFDEB2FA82F2002A0A
:1011700050D1CB1B4FEA174E1FFA87F80126B3FB5D
:10118000FEFC210C0EFB1C3341EA034108FB0CF36F
:101190008B4207D979180CF1FF3002D28B4200F252
:1011A000E9808446C91AA3B2B1FBFEF00EFB101110
:1011B00043EA014408FB00F8A04507D93C1900F1B7
:1011C000FF3302D2A04500F2D9801846A4EB0804F0
:1011D00040EA0C40BFE78B4209D9002D00F0B180F6
:1011E0000026C5E9000130463146BDE8F087B3FA74
:1011F00083F6002E4AD18B4202D3824200F2B8809D
:10120000841A61EB030101208C46002DA8D0C5E9AA
:10121000004CA5E7C2F1200320FA03F6974001FA3B
:1012200002F04FEA174ED9403043030CB1FBFEF6F3
:101230001FFA87F80EFB161143EA014306FB08F17B
:10124000994204FA02F409D9FB1806F1FF3C80F038
:101250008D80994240F28A80023E3B445B1A81B203
:10126000B3FBFEF00EFB103341EA034100FB08F331
:101270008B4207D9791800F1FF3C73D28B4271D9A8
:1012800002383944CB1A40EA064678E7C6F1200C0A
:1012900003FA06F422FA0CF31C4320FA0CF701FAC5
:1012A00006F34FEA144E21FA0CF11F433B0CB1FB3D
:1012B000FEF91FFA84F80EFB191143EA014109FBFC
:1012C00008FA8A4502FA06F200FA06F308D961180C
:1012D00009F1FF3048D28A4546D9A9F102092144D3
:1012E000A1EB0A01BFB2B1FBFEF00EFB101147EA01
:1012F000014700FB08F8B84507D9E71900F1FF31AD
:101300002ED2B8452CD90238274440EA0940A7EB31
:101310000807A0FB02894F45C64649461AD317D095
:101320005DB1B3EB0E0267EB010707FA0CFCF2406C
:101330004CEA0202F740C5E9002700263146BDE825
:10134000F0872E4628460BE70646E9E61846FDE6F6
:101350004345E5D2B8EB020E69EB04010138DFE743
:101360000846D2E760468DE78146B9E7664675E7ED
:1013700030464AE7ACF1020C394413E702383C44EA
:1013800024E700BF704700BFF8B500BFF8BC08BC39
:101390009E467047F8B500BFF8BC08BC9E46704733
:1013A0008800002000000000000000000000000095
:1013B0000338FDD870470000000001010100000063
:1013C000000000010100000000000000010000001A
:1013D000010000000000000000000000000000000C
:1013E0000338FDD870470000040000200000000012
:0813F00050EEFF7F0100000038
:1013F8000090D00300000000000000000000000082
:1014080000000000000000000000000000000000D4
:1014180000000000000000000000000000000000C4
:1014280000000000000000000000000000000000B4
:1014380000000000000000000000000000000000A4
:101448000000000000000000000000000000000094
:0C1458000000000025020000010200005E
:04000003000003BD39
:00000001FF
